{
    "contractName": "hotel",
    "abi": [
        {
            "inputs": [
                {
                    "internalType": "uint256",
                    "name": "_roomsAvailable",
                    "type": "uint256"
                },
                {
                    "internalType": "uint256",
                    "name": "_roomsBooked",
                    "type": "uint256"
                },
                {
                    "internalType": "uint256",
                    "name": "_costOfRoom",
                    "type": "uint256"
                }
            ],
            "stateMutability": "nonpayable",
            "type": "constructor"
        },
        {
            "anonymous": false,
            "inputs": [
                {
                    "indexed": false,
                    "internalType": "uint256",
                    "name": "refund",
                    "type": "uint256"
                },
                {
                    "indexed": false,
                    "internalType": "uint256",
                    "name": "roomNo",
                    "type": "uint256"
                }
            ],
            "name": "romCancelling",
            "type": "event"
        },
        {
            "anonymous": false,
            "inputs": [
                {
                    "indexed": false,
                    "internalType": "uint256",
                    "name": "checkInDate",
                    "type": "uint256"
                },
                {
                    "indexed": false,
                    "internalType": "uint256",
                    "name": "price",
                    "type": "uint256"
                },
                {
                    "indexed": false,
                    "internalType": "uint256",
                    "name": "roomNo",
                    "type": "uint256"
                },
                {
                    "indexed": false,
                    "internalType": "address",
                    "name": "guset",
                    "type": "address"
                }
            ],
            "name": "roomBooking",
            "type": "event"
        },
        {
            "inputs": [
                {
                    "internalType": "address",
                    "name": "",
                    "type": "address"
                }
            ],
            "name": "Guests",
            "outputs": [
                {
                    "internalType": "uint256",
                    "name": "roomNo",
                    "type": "uint256"
                },
                {
                    "internalType": "string",
                    "name": "name",
                    "type": "string"
                },
                {
                    "internalType": "uint256",
                    "name": "contactNo",
                    "type": "uint256"
                },
                {
                    "internalType": "string",
                    "name": "email",
                    "type": "string"
                },
                {
                    "internalType": "uint256",
                    "name": "guestNum",
                    "type": "uint256"
                },
                {
                    "internalType": "address",
                    "name": "guest",
                    "type": "address"
                }
            ],
            "stateMutability": "view",
            "type": "function"
        },
        {
            "inputs": [
                {
                    "internalType": "uint256",
                    "name": "",
                    "type": "uint256"
                }
            ],
            "name": "Rooms",
            "outputs": [
                {
                    "internalType": "bool",
                    "name": "reserved",
                    "type": "bool"
                },
                {
                    "internalType": "address",
                    "name": "guest",
                    "type": "address"
                },
                {
                    "internalType": "uint256",
                    "name": "checkInDate",
                    "type": "uint256"
                }
            ],
            "stateMutability": "view",
            "type": "function"
        },
        {
            "inputs": [
                {
                    "internalType": "uint256",
                    "name": "_roomNo",
                    "type": "uint256"
                },
                {
                    "internalType": "uint256",
                    "name": "_checkInDate",
                    "type": "uint256"
                },
                {
                    "internalType": "string",
                    "name": "_name",
                    "type": "string"
                },
                {
                    "internalType": "uint256",
                    "name": "_contactNo",
                    "type": "uint256"
                },
                {
                    "internalType": "string",
                    "name": "_email",
                    "type": "string"
                },
                {
                    "internalType": "uint256",
                    "name": "_guestNum",
                    "type": "uint256"
                }
            ],
            "name": "bookRoom",
            "outputs": [],
            "stateMutability": "payable",
            "type": "function"
        },
        {
            "inputs": [
                {
                    "internalType": "uint256",
                    "name": "_roomNo",
                    "type": "uint256"
                },
                {
                    "internalType": "uint256",
                    "name": "_today",
                    "type": "uint256"
                }
            ],
            "name": "cancelRoom",
            "outputs": [],
            "stateMutability": "nonpayable",
            "type": "function"
        }
    ],
    "bytecode": "608060405234801561001057600080fd5b506040516107ff3803806107ff83398101604081905261002f91610040565b60009290925560015560025561006e565b60008060006060848603121561005557600080fd5b8351925060208401519150604084015190509250925092565b6107828061007d6000396000f3fe60806040526004361061003f5760003560e01c806324a41378146100445780638bb225711461007f578063c61e3d8114610094578063f673e2c7146100b4575b600080fd5b34801561005057600080fd5b5061006461005f366004610414565b610121565b6040516100769695949392919061048a565b60405180910390f35b61009261008d366004610582565b610270565b005b3480156100a057600080fd5b506100926100af36600461060b565b6102bd565b3480156100c057600080fd5b506100fc6100cf36600461062d565b6003602052600090815260409020805460019091015460ff82169161010090046001600160a01b03169083565b6040805193151584526001600160a01b03909216602084015290820152606001610076565b6004602052600090815260409020805460018201805491929161014390610646565b80601f016020809104026020016040519081016040528092919081815260200182805461016f90610646565b80156101bc5780601f10610191576101008083540402835291602001916101bc565b820191906000526020600020905b81548152906001019060200180831161019f57829003601f168201915b5050505050908060020154908060030180546101d790610646565b80601f016020809104026020016040519081016040528092919081815260200182805461020390610646565b80156102505780601f1061022557610100808354040283529160200191610250565b820191906000526020600020905b81548152906001019060200180831161023357829003601f168201915b5050505060048301546005909301549192916001600160a01b0316905086565b60405162461bcd60e51b815260206004820152601c60248201527f546865726520617265206e6f20726f6f6d7320617661696c61626c650000000060448201526064015b60405180910390fd5b60008281526003602052604090205460ff1615156001146103205760405162461bcd60e51b815260206004820152601a60248201527f5468657265206973206e6f20726f6f6d20746f2063616e63656c00000000000060448201526064016102b4565b33600090815260046020526040902054821461037e5760405162461bcd60e51b815260206004820152601a60248201527f596f7520646964206e6f7420626f6f6b207468697320726f6f6d00000000000060448201526064016102b4565b600160008082825461039091906106af565b9250508190555060018060008282546103a99190610696565b90915550506000828152600360205260408120805460ff191681556001015460026103d48483610696565b116103e2576000915061040e565b60076103ee8483610696565b106103fd57600254915061040e565b6002805461040b919061072a565b91505b50505050565b60006020828403121561042657600080fd5b81356001600160a01b038116811461043d57600080fd5b9392505050565b6000815180845260005b8181101561046a5760208185018101518683018201520161044e565b506000602082860101526020601f19601f83011685010191505092915050565b86815260c0602082015260006104a360c0830188610444565b86604084015282810360608401526104bb8187610444565b608084019590955250506001600160a01b039190911660a090910152949350505050565b634e487b7160e01b600052604160045260246000fd5b600082601f83011261050657600080fd5b813567ffffffffffffffff80821115610521576105216104df565b604051601f8301601f19908116603f01168101908282118183101715610549576105496104df565b8160405283815286602085880101111561056257600080fd5b836020870160208301376000602085830101528094505050505092915050565b60008060008060008060c0878903121561059b57600080fd5b8635955060208701359450604087013567ffffffffffffffff808211156105c157600080fd5b6105cd8a838b016104f5565b95506060890135945060808901359150808211156105ea57600080fd5b506105f789828a016104f5565b92505060a087013590509295509295509295565b6000806040838503121561061e57600080fd5b50508035926020909101359150565b60006020828403121561063f57600080fd5b5035919050565b600181811c9082168061065a57607f821691505b60208210810361067a57634e487b7160e01b600052602260045260246000fd5b50919050565b634e487b7160e01b600052601160045260246000fd5b818103818111156106a9576106a9610680565b92915050565b808201808211156106a9576106a9610680565b818110156106d5578281556001016106c2565b505050505050565b828110156106fc578886015182559484019460019091019084016106dd565b508582101561071a5787850151600019600388901b60f8161c191681555b5050505050600190811b01905550565b60008261074757634e487b7160e01b600052601260045260246000fd5b50049056fea2646970667358221220b921e4b00d773b71c506f00bad1c84f30fc2b5f52f99fba1f7898d8b89ac5b0364736f6c63430008110033",
    "sourcePath": "/home/nailsonseat/Desktop/Blockchain Smart Contracts/Hotel .sol",
    "compiler": {
        "name": "solc",
        "version": "0.8.17+commit.8df45f5f"
    },
    "functionHashes": {
        "Guests(address)": "24a41378",
        "Rooms(uint256)": "f673e2c7",
        "bookRoom(uint256,uint256,string,uint256,string,uint256)": "8bb22571",
        "cancelRoom(uint256,uint256)": "c61e3d81"
    },
    "gasEstimates": {
        "creation": {
            "codeDepositCost": "384400",
            "executionCost": "infinite",
            "totalCost": "infinite"
        },
        "external": {
            "Guests(address)": "infinite",
            "Rooms(uint256)": "4704",
            "bookRoom(uint256,uint256,string,uint256,string,uint256)": "infinite",
            "cancelRoom(uint256,uint256)": "infinite"
        }
    }
}